:1000000000308A00852800002E080739A0002E0C39
:10001000A100A10CA10C1F30A1052108300784000C
:10002000831331188317A101A10AA00A1828A10D72
:10003000A00B1728AF0803192028210880042328C3
:10004000A1092108800508002630840083130008D8
:10005000031937280230A100A001A00B2D28A10B05
:100060002C289730A000A00B3328800B2A280800EA
:1000700013082F0893008316140C031C3C288312CA
:100080001308A2002E0893008316140C031C4528A5
:1000900083121308A1008A117628AB01260EAF0047
:1000A000AE01F030AF05280DA200290DA300A20D6E
:1000B000A30DFC30A2052208AE042308AF042E08CD
:1000C0002B04AC002F08AD002A08AE00AF01B1012F
:1000D000B00104202A08AE00AF01B1018030B000A9
:1000E00004202D08AF002C08AE0038282A08AE00E6
:1000F0000130AF00B101B00104202A08AE00AF0109
:10010000B1018030B0000420080003081F398300CB
:10011000713083168F000F088312941240308316BB
:10012000940020308312940083168713061606135A
:100130003E308312A4003D30A50003171F109F100E
:100140001F119F1103131F13003003179E00990105
:100150009A0183169E0183129B0103138D12831350
:100160002408AE000130AF00B101B0010420240822
:10017000AE00AF01B1018030B00004202508AE0010
:100180000130AF00B101B00104202508AE00AF017D
:10019000B1018030B00004203230A6002420A70135
:1001A0000C30A6000330A9009030A8002508AA0052
:1001B0004D203230A6002420A7010B30A6000330CA
:0E01C000A9003F30A8002408AA004D206300CB
:02400E00E43C90
:00000001FF
;PIC16F690
;CRC=419B  CREATED="05-Jul-17 11:53"
